{
  "contractName": "Sale",
  "abi": [
    {
      "constant": true,
      "inputs": [
        {
          "name": "_tokenId",
          "type": "uint256"
        }
      ],
      "name": "getApproved",
      "outputs": [
        {
          "name": "",
          "type": "address"
        }
      ],
      "payable": false,
      "stateMutability": "view",
      "type": "function"
    },
    {
      "constant": false,
      "inputs": [
        {
          "name": "_to",
          "type": "address"
        },
        {
          "name": "_tokenId",
          "type": "uint256"
        }
      ],
      "name": "approve",
      "outputs": [],
      "payable": false,
      "stateMutability": "nonpayable",
      "type": "function"
    },
    {
      "constant": false,
      "inputs": [
        {
          "name": "_from",
          "type": "address"
        },
        {
          "name": "_to",
          "type": "address"
        },
        {
          "name": "_tokenId",
          "type": "uint256"
        }
      ],
      "name": "transferFrom",
      "outputs": [],
      "payable": false,
      "stateMutability": "nonpayable",
      "type": "function"
    },
    {
      "constant": false,
      "inputs": [
        {
          "name": "_from",
          "type": "address"
        },
        {
          "name": "_to",
          "type": "address"
        },
        {
          "name": "_tokenId",
          "type": "uint256"
        }
      ],
      "name": "safeTransferFrom",
      "outputs": [],
      "payable": false,
      "stateMutability": "nonpayable",
      "type": "function"
    },
    {
      "constant": true,
      "inputs": [
        {
          "name": "_tokenId",
          "type": "uint256"
        }
      ],
      "name": "exists",
      "outputs": [
        {
          "name": "",
          "type": "bool"
        }
      ],
      "payable": false,
      "stateMutability": "view",
      "type": "function"
    },
    {
      "constant": true,
      "inputs": [
        {
          "name": "_tokenId",
          "type": "uint256"
        }
      ],
      "name": "ownerOf",
      "outputs": [
        {
          "name": "",
          "type": "address"
        }
      ],
      "payable": false,
      "stateMutability": "view",
      "type": "function"
    },
    {
      "constant": true,
      "inputs": [
        {
          "name": "_owner",
          "type": "address"
        }
      ],
      "name": "balanceOf",
      "outputs": [
        {
          "name": "",
          "type": "uint256"
        }
      ],
      "payable": false,
      "stateMutability": "view",
      "type": "function"
    },
    {
      "constant": false,
      "inputs": [
        {
          "name": "_to",
          "type": "address"
        },
        {
          "name": "_approved",
          "type": "bool"
        }
      ],
      "name": "setApprovalForAll",
      "outputs": [],
      "payable": false,
      "stateMutability": "nonpayable",
      "type": "function"
    },
    {
      "constant": false,
      "inputs": [
        {
          "name": "_from",
          "type": "address"
        },
        {
          "name": "_to",
          "type": "address"
        },
        {
          "name": "_tokenId",
          "type": "uint256"
        },
        {
          "name": "_data",
          "type": "bytes"
        }
      ],
      "name": "safeTransferFrom",
      "outputs": [],
      "payable": false,
      "stateMutability": "nonpayable",
      "type": "function"
    },
    {
      "constant": true,
      "inputs": [],
      "name": "nonFungibleContract",
      "outputs": [
        {
          "name": "",
          "type": "address"
        }
      ],
      "payable": false,
      "stateMutability": "view",
      "type": "function"
    },
    {
      "constant": true,
      "inputs": [
        {
          "name": "",
          "type": "uint256"
        }
      ],
      "name": "tokenIdToAuction",
      "outputs": [
        {
          "name": "seller",
          "type": "address"
        },
        {
          "name": "price",
          "type": "uint256"
        }
      ],
      "payable": false,
      "stateMutability": "view",
      "type": "function"
    },
    {
      "constant": true,
      "inputs": [
        {
          "name": "_owner",
          "type": "address"
        },
        {
          "name": "_operator",
          "type": "address"
        }
      ],
      "name": "isApprovedForAll",
      "outputs": [
        {
          "name": "",
          "type": "bool"
        }
      ],
      "payable": false,
      "stateMutability": "view",
      "type": "function"
    },
    {
      "inputs": [
        {
          "name": "_nftAddress",
          "type": "address"
        }
      ],
      "payable": false,
      "stateMutability": "nonpayable",
      "type": "constructor"
    },
    {
      "anonymous": false,
      "inputs": [
        {
          "indexed": false,
          "name": "seller",
          "type": "address"
        },
        {
          "indexed": false,
          "name": "price",
          "type": "uint256"
        },
        {
          "indexed": false,
          "name": "token_id",
          "type": "uint256"
        }
      ],
      "name": "NewAuction",
      "type": "event"
    },
    {
      "anonymous": false,
      "inputs": [
        {
          "indexed": true,
          "name": "_from",
          "type": "address"
        },
        {
          "indexed": true,
          "name": "_to",
          "type": "address"
        },
        {
          "indexed": false,
          "name": "_tokenId",
          "type": "uint256"
        }
      ],
      "name": "Transfer",
      "type": "event"
    },
    {
      "anonymous": false,
      "inputs": [
        {
          "indexed": true,
          "name": "_owner",
          "type": "address"
        },
        {
          "indexed": true,
          "name": "_approved",
          "type": "address"
        },
        {
          "indexed": false,
          "name": "_tokenId",
          "type": "uint256"
        }
      ],
      "name": "Approval",
      "type": "event"
    },
    {
      "anonymous": false,
      "inputs": [
        {
          "indexed": true,
          "name": "_owner",
          "type": "address"
        },
        {
          "indexed": true,
          "name": "_operator",
          "type": "address"
        },
        {
          "indexed": false,
          "name": "_approved",
          "type": "bool"
        }
      ],
      "name": "ApprovalForAll",
      "type": "event"
    },
    {
      "constant": false,
      "inputs": [
        {
          "name": "_tokenId",
          "type": "uint256"
        },
        {
          "name": "_price",
          "type": "uint256"
        }
      ],
      "name": "createAuction",
      "outputs": [],
      "payable": false,
      "stateMutability": "nonpayable",
      "type": "function"
    },
    {
      "constant": false,
      "inputs": [
        {
          "name": "_tokenId",
          "type": "uint256"
        }
      ],
      "name": "bid",
      "outputs": [],
      "payable": true,
      "stateMutability": "payable",
      "type": "function"
    },
    {
      "constant": false,
      "inputs": [
        {
          "name": "_tokenId",
          "type": "uint256"
        }
      ],
      "name": "cancel",
      "outputs": [],
      "payable": false,
      "stateMutability": "nonpayable",
      "type": "function"
    }
  ],
  "bytecode": "0x608060405234801561001057600080fd5b50604051602080611beb8339810180604052810190808051906020019092919050505080600460006101000a81548173ffffffffffffffffffffffffffffffffffffffff021916908373ffffffffffffffffffffffffffffffffffffffff16021790555050611b67806100846000396000f3006080604052600436106100db576000357c0100000000000000000000000000000000000000000000000000000000900463ffffffff1680630121683f146100e0578063081812fc14610117578063095ea7b31461018457806323b872dd146101d157806340e58ee51461023e57806342842e0e1461026b578063454a2ab3146102d85780634f558e79146102f85780636352211e1461033d57806370a08231146103aa578063a22cb46514610401578063b88d4fde14610450578063dd1b7a0f14610503578063e3b147571461055a578063e985e9c5146105ce575b600080fd5b3480156100ec57600080fd5b506101156004803603810190808035906020019092919080359060200190929190505050610649565b005b34801561012357600080fd5b506101426004803603810190808035906020019092919050505061086f565b604051808273ffffffffffffffffffffffffffffffffffffffff1673ffffffffffffffffffffffffffffffffffffffff16815260200191505060405180910390f35b34801561019057600080fd5b506101cf600480360381019080803573ffffffffffffffffffffffffffffffffffffffff169060200190929190803590602001909291905050506108ac565b005b3480156101dd57600080fd5b5061023c600480360381019080803573ffffffffffffffffffffffffffffffffffffffff169060200190929190803573ffffffffffffffffffffffffffffffffffffffff16906020019092919080359060200190929190505050610a72565b005b34801561024a57600080fd5b5061026960048036038101908080359060200190929190505050610b89565b005b34801561027757600080fd5b506102d6600480360381019080803573ffffffffffffffffffffffffffffffffffffffff169060200190929190803573ffffffffffffffffffffffffffffffffffffffff16906020019092919080359060200190929190505050610da9565b005b6102f660048036038101908080359060200190929190505050610de1565b005b34801561030457600080fd5b5061032360048036038101908080359060200190929190505050611066565b604051808215151515815260200191505060405180910390f35b34801561034957600080fd5b50610368600480360381019080803590602001909291905050506110d7565b604051808273ffffffffffffffffffffffffffffffffffffffff1673ffffffffffffffffffffffffffffffffffffffff16815260200191505060405180910390f35b3480156103b657600080fd5b506103eb600480360381019080803573ffffffffffffffffffffffffffffffffffffffff169060200190929190505050611154565b6040518082815260200191505060405180910390f35b34801561040d57600080fd5b5061044e600480360381019080803573ffffffffffffffffffffffffffffffffffffffff1690602001909291908035151590602001909291905050506111d8565b005b34801561045c57600080fd5b50610501600480360381019080803573ffffffffffffffffffffffffffffffffffffffff169060200190929190803573ffffffffffffffffffffffffffffffffffffffff16906020019092919080359060200190929190803590602001908201803590602001908080601f0160208091040260200160405190810160405280939291908181526020018383808284378201915050505050509192919290505050611314565b005b34801561050f57600080fd5b50610518611353565b604051808273ffffffffffffffffffffffffffffffffffffffff1673ffffffffffffffffffffffffffffffffffffffff16815260200191505060405180910390f35b34801561056657600080fd5b5061058560048036038101908080359060200190929190505050611379565b604051808373ffffffffffffffffffffffffffffffffffffffff1673ffffffffffffffffffffffffffffffffffffffff1681526020018281526020019250505060405180910390f35b3480156105da57600080fd5b5061062f600480360381019080803573ffffffffffffffffffffffffffffffffffffffff169060200190929190803573ffffffffffffffffffffffffffffffffffffffff1690602001909291905050506113bd565b604051808215151515815260200191505060405180910390f35b610651611b0b565b60408051908101604052803373ffffffffffffffffffffffffffffffffffffffff168152602001838152509050806005600085815260200190815260200160002060008201518160000160006101000a81548173ffffffffffffffffffffffffffffffffffffffff021916908373ffffffffffffffffffffffffffffffffffffffff16021790555060208201518160010155905050600460009054906101000a900473ffffffffffffffffffffffffffffffffffffffff1673ffffffffffffffffffffffffffffffffffffffff166323b872dd3330866040518463ffffffff167c0100000000000000000000000000000000000000000000000000000000028152600401808473ffffffffffffffffffffffffffffffffffffffff1673ffffffffffffffffffffffffffffffffffffffff1681526020018373ffffffffffffffffffffffffffffffffffffffff1673ffffffffffffffffffffffffffffffffffffffff1681526020018281526020019350505050600060405180830381600087803b1580156107df57600080fd5b505af11580156107f3573d6000803e3d6000fd5b505050507fc078426956212265671526c1abdaea1311badbf1505fe0711db77bca2fa9afae338385604051808473ffffffffffffffffffffffffffffffffffffffff1673ffffffffffffffffffffffffffffffffffffffff168152602001838152602001828152602001935050505060405180910390a1505050565b60006001600083815260200190815260200160002060009054906101000a900473ffffffffffffffffffffffffffffffffffffffff169050919050565b60006108b7826110d7565b90508073ffffffffffffffffffffffffffffffffffffffff168373ffffffffffffffffffffffffffffffffffffffff16141515156108f457600080fd5b8073ffffffffffffffffffffffffffffffffffffffff163373ffffffffffffffffffffffffffffffffffffffff161480610934575061093381336113bd565b5b151561093f57600080fd5b600073ffffffffffffffffffffffffffffffffffffffff166109608361086f565b73ffffffffffffffffffffffffffffffffffffffff161415806109b05750600073ffffffffffffffffffffffffffffffffffffffff168373ffffffffffffffffffffffffffffffffffffffff1614155b15610a6d57826001600084815260200190815260200160002060006101000a81548173ffffffffffffffffffffffffffffffffffffffff021916908373ffffffffffffffffffffffffffffffffffffffff1602179055508273ffffffffffffffffffffffffffffffffffffffff168173ffffffffffffffffffffffffffffffffffffffff167f8c5be1e5ebec7d5bd14f71427d1e84f3dd0314c0f7b2291e5b200ac8c7c3b925846040518082815260200191505060405180910390a35b505050565b80610a7d3382611451565b1515610a8857600080fd5b600073ffffffffffffffffffffffffffffffffffffffff168473ffffffffffffffffffffffffffffffffffffffff1614151515610ac457600080fd5b600073ffffffffffffffffffffffffffffffffffffffff168373ffffffffffffffffffffffffffffffffffffffff1614151515610b0057600080fd5b610b0a84836114e6565b610b14848361164f565b610b1e838361177d565b8273ffffffffffffffffffffffffffffffffffffffff168473ffffffffffffffffffffffffffffffffffffffff167fddf252ad1be2c89b69c2b068fc378daa952ba7f163c4a11628f55a4df523b3ef846040518082815260200191505060405180910390a350505050565b610b91611b0b565b600560008381526020019081526020016000206040805190810160405290816000820160009054906101000a900473ffffffffffffffffffffffffffffffffffffffff1673ffffffffffffffffffffffffffffffffffffffff1673ffffffffffffffffffffffffffffffffffffffff16815260200160018201548152505090503373ffffffffffffffffffffffffffffffffffffffff16816000015173ffffffffffffffffffffffffffffffffffffffff16141515610c4f57600080fd5b60056000838152602001908152602001600020600080820160006101000a81549073ffffffffffffffffffffffffffffffffffffffff021916905560018201600090555050600460009054906101000a900473ffffffffffffffffffffffffffffffffffffffff1673ffffffffffffffffffffffffffffffffffffffff166323b872dd3033856040518463ffffffff167c0100000000000000000000000000000000000000000000000000000000028152600401808473ffffffffffffffffffffffffffffffffffffffff1673ffffffffffffffffffffffffffffffffffffffff1681526020018373ffffffffffffffffffffffffffffffffffffffff1673ffffffffffffffffffffffffffffffffffffffff1681526020018281526020019350505050600060405180830381600087803b158015610d8d57600080fd5b505af1158015610da1573d6000803e3d6000fd5b505050505050565b80610db43382611451565b1515610dbf57600080fd5b610ddb8484846020604051908101604052806000815250611314565b50505050565b610de9611b0b565b60008073ffffffffffffffffffffffffffffffffffffffff163373ffffffffffffffffffffffffffffffffffffffff1614151515610e2657600080fd5b600560008481526020019081526020016000206040805190810160405290816000820160009054906101000a900473ffffffffffffffffffffffffffffffffffffffff1673ffffffffffffffffffffffffffffffffffffffff1673ffffffffffffffffffffffffffffffffffffffff168152602001600182015481525050915081602001513410151515610eb957600080fd5b60056000848152602001908152602001600020600080820160006101000a81549073ffffffffffffffffffffffffffffffffffffffff021916905560018201600090555050816000015190508073ffffffffffffffffffffffffffffffffffffffff166108fc83602001519081150290604051600060405180830381858888f19350505050158015610f4f573d6000803e3d6000fd5b50600460009054906101000a900473ffffffffffffffffffffffffffffffffffffffff1673ffffffffffffffffffffffffffffffffffffffff166323b872dd3033866040518463ffffffff167c0100000000000000000000000000000000000000000000000000000000028152600401808473ffffffffffffffffffffffffffffffffffffffff1673ffffffffffffffffffffffffffffffffffffffff1681526020018373ffffffffffffffffffffffffffffffffffffffff1673ffffffffffffffffffffffffffffffffffffffff1681526020018281526020019350505050600060405180830381600087803b15801561104957600080fd5b505af115801561105d573d6000803e3d6000fd5b50505050505050565b60008060008084815260200190815260200160002060009054906101000a900473ffffffffffffffffffffffffffffffffffffffff169050600073ffffffffffffffffffffffffffffffffffffffff168173ffffffffffffffffffffffffffffffffffffffff161415915050919050565b60008060008084815260200190815260200160002060009054906101000a900473ffffffffffffffffffffffffffffffffffffffff169050600073ffffffffffffffffffffffffffffffffffffffff168173ffffffffffffffffffffffffffffffffffffffff161415151561114b57600080fd5b80915050919050565b60008073ffffffffffffffffffffffffffffffffffffffff168273ffffffffffffffffffffffffffffffffffffffff161415151561119157600080fd5b600260008373ffffffffffffffffffffffffffffffffffffffff1673ffffffffffffffffffffffffffffffffffffffff168152602001908152602001600020549050919050565b3373ffffffffffffffffffffffffffffffffffffffff168273ffffffffffffffffffffffffffffffffffffffff161415151561121357600080fd5b80600360003373ffffffffffffffffffffffffffffffffffffffff1673ffffffffffffffffffffffffffffffffffffffff16815260200190815260200160002060008473ffffffffffffffffffffffffffffffffffffffff1673ffffffffffffffffffffffffffffffffffffffff16815260200190815260200160002060006101000a81548160ff0219169083151502179055508173ffffffffffffffffffffffffffffffffffffffff163373ffffffffffffffffffffffffffffffffffffffff167f17307eab39ab6107e8899845ad3d59bd9653f200f220920489ca2b5937696c3183604051808215151515815260200191505060405180910390a35050565b8161131f3382611451565b151561132a57600080fd5b611335858585610a72565b611341858585856118d5565b151561134c57600080fd5b5050505050565b600460009054906101000a900473ffffffffffffffffffffffffffffffffffffffff1681565b60056020528060005260406000206000915090508060000160009054906101000a900473ffffffffffffffffffffffffffffffffffffffff16908060010154905082565b6000600360008473ffffffffffffffffffffffffffffffffffffffff1673ffffffffffffffffffffffffffffffffffffffff16815260200190815260200160002060008373ffffffffffffffffffffffffffffffffffffffff1673ffffffffffffffffffffffffffffffffffffffff16815260200190815260200160002060009054906101000a900460ff16905092915050565b60008061145d836110d7565b90508073ffffffffffffffffffffffffffffffffffffffff168473ffffffffffffffffffffffffffffffffffffffff1614806114cc57508373ffffffffffffffffffffffffffffffffffffffff166114b48461086f565b73ffffffffffffffffffffffffffffffffffffffff16145b806114dd57506114dc81856113bd565b5b91505092915050565b8173ffffffffffffffffffffffffffffffffffffffff16611506826110d7565b73ffffffffffffffffffffffffffffffffffffffff1614151561152857600080fd5b600073ffffffffffffffffffffffffffffffffffffffff166001600083815260200190815260200160002060009054906101000a900473ffffffffffffffffffffffffffffffffffffffff1673ffffffffffffffffffffffffffffffffffffffff1614151561164b5760006001600083815260200190815260200160002060006101000a81548173ffffffffffffffffffffffffffffffffffffffff021916908373ffffffffffffffffffffffffffffffffffffffff160217905550600073ffffffffffffffffffffffffffffffffffffffff168273ffffffffffffffffffffffffffffffffffffffff167f8c5be1e5ebec7d5bd14f71427d1e84f3dd0314c0f7b2291e5b200ac8c7c3b925836040518082815260200191505060405180910390a35b5050565b8173ffffffffffffffffffffffffffffffffffffffff1661166f826110d7565b73ffffffffffffffffffffffffffffffffffffffff1614151561169157600080fd5b6116e46001600260008573ffffffffffffffffffffffffffffffffffffffff1673ffffffffffffffffffffffffffffffffffffffff16815260200190815260200160002054611ac390919063ffffffff16565b600260008473ffffffffffffffffffffffffffffffffffffffff1673ffffffffffffffffffffffffffffffffffffffff16815260200190815260200160002081905550600080600083815260200190815260200160002060006101000a81548173ffffffffffffffffffffffffffffffffffffffff021916908373ffffffffffffffffffffffffffffffffffffffff1602179055505050565b600073ffffffffffffffffffffffffffffffffffffffff1660008083815260200190815260200160002060009054906101000a900473ffffffffffffffffffffffffffffffffffffffff1673ffffffffffffffffffffffffffffffffffffffff161415156117ea57600080fd5b8160008083815260200190815260200160002060006101000a81548173ffffffffffffffffffffffffffffffffffffffff021916908373ffffffffffffffffffffffffffffffffffffffff16021790555061188e6001600260008573ffffffffffffffffffffffffffffffffffffffff1673ffffffffffffffffffffffffffffffffffffffff16815260200190815260200160002054611adc90919063ffffffff16565b600260008473ffffffffffffffffffffffffffffffffffffffff1673ffffffffffffffffffffffffffffffffffffffff168152602001908152602001600020819055505050565b6000806118f78573ffffffffffffffffffffffffffffffffffffffff16611af8565b15156119065760019150611aba565b8473ffffffffffffffffffffffffffffffffffffffff1663f0b9e5ba8786866040518463ffffffff167c0100000000000000000000000000000000000000000000000000000000028152600401808473ffffffffffffffffffffffffffffffffffffffff1673ffffffffffffffffffffffffffffffffffffffff16815260200183815260200180602001828103825283818151815260200191508051906020019080838360005b838110156119c85780820151818401526020810190506119ad565b50505050905090810190601f1680156119f55780820380516001836020036101000a031916815260200191505b50945050505050602060405180830381600087803b158015611a1657600080fd5b505af1158015611a2a573d6000803e3d6000fd5b505050506040513d6020811015611a4057600080fd5b8101908080519060200190929190505050905063f0b9e5ba7c0100000000000000000000000000000000000000000000000000000000027bffffffffffffffffffffffffffffffffffffffffffffffffffffffff1916817bffffffffffffffffffffffffffffffffffffffffffffffffffffffff19161491505b50949350505050565b6000828211151515611ad157fe5b818303905092915050565b60008183019050828110151515611aef57fe5b80905092915050565b600080823b905060008111915050919050565b6040805190810160405280600073ffffffffffffffffffffffffffffffffffffffff1681526020016000815250905600a165627a7a7230582059d562881a07263664254cbc5abfa3795edf0ea59de635d4f6fc18c1520dcbea0029",
  "source": "pragma solidity ^0.4.17;\n\n//Here we imported an ERC721 token interface\n//We need to have a reference to the non-fungible token contract to be able to call it's methods, like transfer.\nimport '../node_modules/zeppelin-solidity/contracts/token/ERC721/ERC721.sol';\nimport '../node_modules/zeppelin-solidity/contracts/token/ERC721/ERC721BasicToken.sol';\n\ncontract Sale is ERC721BasicToken{\n\t//We need to have a reference to the non-fungible token contract to be able to call it’s methods, like transfer\n\tERC721 public nonFungibleContract;\n\n\tevent NewAuction(address seller, uint256 price, uint256 token_id);\n\n\t//We need to be able to create new auctions using tokenId and price so we make a struct Auction and the mapping tokenIdToAuction\n\tstruct Auction {\n\t  address seller;\n\t  uint256 price;\n\t}\n\n\t//Every auction should be associated with specific token, define a mapping:\n\t//We made it public so Solidity will automatically generate getter for it.\n\tmapping (uint256 => Auction) public tokenIdToAuction;\n\n\tfunction Sale(address _nftAddress) public {\n\t\tnonFungibleContract = ERC721(_nftAddress);\n\t}\n\n\t//Now we can define a function that will take ownership of the token and create an associated auction:\n\t//onlyOwnerOf => Guarantees msg.sender is owner of the given token, the function lives in ERC721BasicToken.sol \n\t//onlyOwnerOf(_tokenId) taking this off temporarily\n\tfunction createAuction(uint256 _tokenId, uint256 _price)  public {\n\t\t//Then we create a new instance of our Auction and assign it to a temporary in-memory variable auction.\n\t\t// onlyOwnerOf(_tokenId)\n\t\tAuction memory auction = Auction(\n\t\t\tmsg.sender,\n\t\t\t_price\n\t\t);\n\n\t\t//we make a mapping of this auction to our _tokenId.\n\t\ttokenIdToAuction[_tokenId] = auction;\n\n\t\t//send the token to the contract from the seller \n\t\t//temp comment out\n\t\tnonFungibleContract.transferFrom(msg.sender, address(this), _tokenId);\n\n\t\temit NewAuction(msg.sender, _price, _tokenId);\n\t}\n\n\t//This method should check if bid value is bigger or equal to auction price and if yes – transfer token to new owner and remove auction.\n\t//Our function has payable modifier that allows this function to receive money. The received amount can be accessed through msg.value\n\tfunction bid( uint256 _tokenId ) public payable {\n\t\trequire(msg.sender != address(0));\n\n\t\t//First, we get the auction representation from our tokenIdToAuction map\n\t\tAuction memory auction = tokenIdToAuction[_tokenId];\n\n\t\t//we check if msg.value is bigger or equal to the auction.price\n\t\trequire(msg.value >= auction.price);\n\n\t\t//remove the auction, preventing further bids to it\n\t\tdelete tokenIdToAuction[_tokenId];\n\n\t\t//we temporarily save seller address and price\n\t\taddress seller = auction.seller;\n\n\t\t//we transfer money to the seller \n\t\tseller.transfer(auction.price);\n\n\t\t//transfer the non fungible token to the bidder \n\t\t//temp comment out\n\t\tnonFungibleContract.transferFrom(address(this), msg.sender, _tokenId);\n\t}\n\n\tfunction cancel( uint256 _tokenId ) public {\n\t\t//load the auction in\n\t\tAuction memory auction = tokenIdToAuction[_tokenId];\n\n\t\t//we don't need to check that auction.seller is non-zero because we check if it's equal to msg.sender anyway. \n\t\t//We want only auction creator to be able to cancel auctions.\n\t\trequire(auction.seller == msg.sender);\n\n\t\t//we delete the auction\n\t\tdelete tokenIdToAuction[_tokenId];\n\n\t\t//send the token back to the seller (which is msg.sender) \n\t\t//temp comment out\n\t\tnonFungibleContract.transferFrom(address(this), msg.sender, _tokenId);\n\n\t}\n}",
  "sourcePath": "C:\\Users\\email\\Documents\\Projects\\EVM\\Blockchain Class\\Organized\\Class Content\\6-3-18-crypto-dogs-ERC721-08\\contracts\\Sale.sol",
  "compiler": {
    "name": "solc",
    "version": "0.4.24+commit.e67f0147.Emscripten.clang"
  },
  "schemaVersion": "2.0.0",
  "updatedAt": "2018-06-05T02:36:19.769Z"
}